:100000000C94DF000C9407010C9407010C94070179
:100010000C9407010C9407010C9407010C94070140
:100020000C9407010C9407010C9407010C94070130
:100030000C9407010C9407010C9407010C94070120
:100040000C94B2050C9407010C9422060C94FC0548
:100050000C9407010C9407010C9407010C94070100
:100060000C9407010C94070100407A10F35A00A089
:10007000724E18090010A5D4E80000E87648170071
:1000800000E40B54020000CA9A3B000000E1F505B1
:10009000000080969800000040420F000000A086FB
:1000A00001000000102700000000E803000000002D
:1000B0006400000000000A000000000001000000D1
:1000C00000002C76D888DC674F0823DFC1DFAE59EB
:1000D000E1B1B796E5E3E453C63AE651997696E87E
:1000E000E6C28426EB898C9B62ED407C6FFCEFBC02
:1000F0009C9F40F2BAA56FA5F490055A2AF75C932D
:100100006B6CF9676DC11BFCE0E40D47FEF520E662
:10011000B500D0ED902E0300943577050080841E45
:10012000080000204E0A000000C80C333333330FA0
:10013000986E12831141EF8D2114893BE65516CF3D
:10014000FEE6DB18D1844B381BF77C1D901DA4BB49
:10015000E424203284725E228100C9F124ECA1E5FE
:100160003D2700000000240027002A0000000000B6
:10017000250028002B0000000008000201000003F9
:100180000407000000000000000000000000230041
:1001900026002900040404040404040402020202E8
:1001A000020203030303030301020408102040803A
:1001B0000102040810200102040810205406112432
:1001C0001FBECFEFD8E0DEBFCDBF12E0A0E0B1E0B0
:1001D000E0EDF3E202C005900D92AC39B107D9F71A
:1001E00023E0ACE9B2E001C01D92A635B207E1F709
:1001F00010E0CFEDD0E004C02197FE010E942B0F4C
:10020000CE3DD107C9F70E94A1060C94E6110C94CB
:100210000000CF92DF92EF92FF92CF93DF93B091E5
:100220004A03A0E08111AB2F80914B0390E0880F2F
:10023000991FAC0146575E4FC0905003D0905103B8
:10024000E0905203F090530330E020E0FA01C591B2
:10025000D491E881B90190E080E0EB23EA130AC071
:100260002F5F3F4F6C157D058E059F0578F36FEF6F
:100270007FEFCB01DF91CF91FF90EF90DF90CF9098
:100280000895CF93DF9390E0FC01E855FE4F249151
:100290008C569E4FFC0184918823D1F090E0880F0A
:1002A000991FFC01EE59FE4FA591B491FC01E45950
:1002B000FE4FC591D491623071F49FB7F8943C9190
:1002C000822F809583238C93E8812E2B28839FBFD8
:1002D000DF91CF9108958FB7F894EC912E2B2C934A
:1002E0008FBFF6CF8E50806480937C0080917A001F
:1002F000806480937A0080917A0086FDFCCF8091A3
:1003000078009091790008953FB7F89480919E020B
:1003100090919F02A091A002B091A10226B5A89B46
:1003200005C02F3F19F00196A11DB11D3FBFBA2F87
:10033000A92F982F8827BC01CD01620F711D811D47
:10034000911D42E0660F771F881F991F4A95D1F7CC
:1003500008958F929F92AF92BF92CF92DF92EF92C9
:10036000FF924B015C010E9484016B017C010E94A1
:1003700084016C197D098E099F09683E73408105CF
:100380009105A8F321E0821A9108A108B10888EE2E
:10039000C80E83E0D81EE11CF11C81149104A10455
:1003A000B10429F7FF90EF90DF90CF90BF90AF900E
:1003B0009F908F9008958F929F92AF92BF92EF92ED
:1003C000FF920F931F93CF93DF93CDB7DEB7C05447
:1003D000D1400FB6F894DEBF0FBECDBF2FB7F89453
:1003E0008091A2029091A302A091A402B091A502D3
:1003F0002FBF40914C0350914D0360914E0370917B
:100400004F038C019D01041B150B260B370BB90103
:10041000A801403D574061057105A0F48091540347
:10042000C05CDE4F0FB6F894DEBF0FBECDBFDF91CC
:10043000CF911F910F91FF90EF90BF90AF909F9041
:100440008F90089580934C0390934D03A0934E0397
:10045000B0934F0310924703109246031092450346
:10046000109244031092430362E0809148030E947B
:10047000410161E070E080E090E00E94A90161E04C
:10048000809148030E9441018091480390E0FC0163
:10049000EA58FE4F2491FC01E855FE4F3491FC01CF
:1004A000EC56FE4FE491EE23D9F0222359F023308D
:1004B00009F44BC008F03EC0213009F44CC0223092
:1004C00009F44DC0F0E0EE0FFF1FE459FE4FA59177
:1004D000B4918FB7F894EC9130953E233C938FBF45
:1004E000809149038551823008F046C08BE291E14A
:1004F0000197F1F762E0809148030E9441018091E9
:10050000550390E08230910538F0880F991F880FCD
:10051000991F05970197F1F7F89480E00E9409016F
:100520006F3F7F4F8F4F9F4F71F510925403789418
:1005300080E076CF2730B1F02830D1F0243009F0B8
:10054000C1CF809180008F7D03C0809180008F7724
:1005500080938000B7CF84B58F7784BDB3CF84B547
:100560008F7DFBCF8091B0008F778093B000AACFB2
:100570008091B0008F7DF9CF64E170E080E090E081
:100580000E94A901B7CF81E00E9409016F3F7F4F10
:100590008F4F9F4F51F2CE0101967C015E019FEB80
:1005A000A91A9EEFB90A870180E00E940901F801AB
:1005B000608371838283938381E00E940901F80143
:1005C0006483758386839783085F1F4FA016B106E7
:1005D00059F7789430E020E0F70180809180A28084
:1005E000B3804481558166817781FFEF8F169F0626
:1005F000AF06BF0631F04F3F0FEF5007600770079F
:1006000019F41092540394CFF90183E0F595E7951E
:100610008A95E1F7ED5BFC4F8081880F8416950683
:10062000A606B70618F180832F5F3F4F18E0E10E52
:10063000F11C2832310581F6409147032091430394
:1006400080914403280F3327331F80914503280FDF
:10065000311D80914603820F932F911D99274817D2
:10066000190679F681E080935403DACE8160DBCFFE
:10067000AF92BF92CF92DF92EF92FF920F931F93B0
:10068000CF93DF936C017B018B01040F151FEB01EE
:100690005E01AE18BF08C017D10759F06991D601A5
:1006A000ED91FC910190F081E02DC6010995892B17
:1006B00079F7C501DF91CF911F910F91FF90EF90D6
:1006C000DF90CF90BF90AF900895FC01538D448D83
:1006D000252F30E0842F90E0821B930B541710F0ED
:1006E000CF96089501970895FC01918D828D9817FA
:1006F00061F0A28DAE0FBF2FB11D5D968C91928DD2
:100700009F5F9F73928F90E008958FEF9FEF089502
:10071000FC01918D828D981731F0828DE80FF11DCB
:10072000858D90E008958FEF9FEF0895FC01918DE6
:10073000228D892F90E0805C9F4F821B91098F73DF
:100740009927089586EA92E00E94960321E0892B7A
:1007500009F420E0822F089580E090E0892B29F0B1
:100760000E94A20381110C9400000895FC01A48D45
:10077000A80FB92FB11DA35ABF4F2C91848D90E0C3
:1007800001968F739927848FA689B7892C93A089A6
:10079000B1898C91837080648C93938D848D981330
:1007A00006C00288F389E02D80818F7D80830895C3
:1007B000EF92FF920F931F93CF93DF93EC0181E0B1
:1007C000888F9B8D8C8D98131AC0E889F989808158
:1007D00085FF15C09FB7F894EE89FF896083E8898B
:1007E000F98980818370806480839FBF81E090E07D
:1007F000DF91CF911F910F91FF90EF900895F62E0A
:100800000B8D10E00F5F1F4F0F731127E02E8C8DA3
:100810008E110CC00FB607FCFACFE889F9898081E8
:1008200085FFF5CFCE010E94B603F1CFEB8DEC0F23
:10083000FD2FF11DE35AFF4FF0829FB7F8940B8F05
:10084000EA89FB8980818062CFCFCF93DF93EC016F
:10085000888D8823B9F0AA89BB89E889F9898C91A8
:1008600085FD03C0808186FD0DC00FB607FCF7CF64
:100870008C9185FFF2CF808185FFEDCFCE010E9464
:10088000B603E9CFDF91CF910895FC0101900020DC
:10089000E9F73197AF01481B590BBC0186EA92E09A
:1008A0000C9438038F929F92AF92BF920F931F9335
:1008B000CF93DF93CDB7DEB7A1970FB6F894DEBF25
:1008C0000FBECDBF19A2423008F44AE08E010F5D81
:1008D0001F4F842E912CB12CA12CA50194010E94B4
:1008E000090FE62FB901CA01EA30F4F4E05DD8013E
:1008F000EE938D01232B242B252B79F790E080E0BC
:10090000109719F0CD010E944504A1960FB6F894F6
:10091000DEBF0FBECDBFDF91CF911F910F91BF9072
:10092000AF909F908F900895E95CE1CFCF93DF93D4
:100930000E944504EC0182E191E00E9445048C0F85
:100940009D1FDF91CF9108950C9445044F925F92C3
:100950006F927F928F929F92AF92BF92CF92DF92CF
:10096000EF92FF920F931F93CF936B017C01742E34
:10097000AC019B010E94040F882399F085E191E06E
:10098000CF911F910F91FF90EF90DF90CF90BF908C
:10099000AF909F908F907F906F905F904F900C944E
:1009A000450446015701E894B7F82FEF3FEF4FE7B2
:1009B0005FE7C501B4010E94040F81110DC02FEF44
:1009C0003FEF4FE75FE7C501B4010E94330D1816F2
:1009D0001CF489E191E0D4CF2FEF3FEF4FE75FE4C4
:1009E000C701B6010E94920E18161CF48DE191E029
:1009F000C7CF2FEF3FEF4FE75FECC701B6010E9473
:100A0000330D87FDF3CF20E030E0A901C701B60127
:100A10000E94330D10E000E087FF0AC06DE286EA15
:100A200092E00E94D8038C01F7FAF094F7F8F09462
:100A3000C0E060E070E080E09FE37C1641F020E0E1
:100A400030E040E251E40E94380DCF5FF6CFA701BD
:100A500096010E94C70C2B013C010E94B10D4B0175
:100A60005C014AE00E9452047C01E00EF11ECC239E
:100A7000C1F1C501B4010E94E00D9B01AC01C301AD
:100A8000B2010E94C60C4B015C016EE286EA92E064
:100A90000E94D803E80EF91EC15018F120E030E0A2
:100AA00040E251E4C501B4010E94970E2B013C01C4
:100AB0000E94B10D4B01B12CA12C4AE0C501B4013B
:100AC0000E945204E80EF91EC501B4010E94E00D17
:100AD0009B01AC01C301B2010E94C60C4B015C0139
:100AE000DBCFC701CF911F910F91FF90EF90DF9067
:100AF000CF90BF90AF909F908F907F906F905F90BE
:100B00004F900895CF92DF92EF92FF92CF93DF93B1
:100B10006C01990FEE08FF08F7FE19C06DE286EA36
:100B200092E00E94D803EC0166277727CB016C196D
:100B30007D098E099F094AE00E9452048C0F9D1F77
:100B4000DF91CF91FF90EF90DF90CF9008954AE032
:100B5000C701B601DF91CF91FF90EF90DF90CF906A
:100B60000C9452041F920F920FB60F9211242F93E0
:100B70003F938F939F93AF93BF938091A2029091E5
:100B8000A302A091A402B091A50230919D0223E09E
:100B9000230F2D3758F50196A11DB11D20939D02FD
:100BA0008093A2029093A302A093A402B093A50203
:100BB00080919E0290919F02A091A002B091A1020B
:100BC0000196A11DB11D80939E0290939F02A09358
:100BD000A002B093A102BF91AF919F918F913F91DD
:100BE0002F910F900FBE0F901F90189526E8230F9E
:100BF0000296A11DB11DD2CF1F920F920FB60F9278
:100C000011242F933F934F935F936F937F938F9311
:100C10009F93AF93BF93EF93FF9386EA92E00E9476
:100C2000B603FF91EF91BF91AF919F918F917F910B
:100C30006F915F914F913F912F910F900FBE0F9049
:100C40001F9018951F920F920FB60F9211242F9399
:100C50008F939F93EF93FF93E091B602F091B702C9
:100C60008081E091BC02F091BD0282FD1BC09081A9
:100C70008091BF028F5F8F732091C002821741F075
:100C8000E091BF02F0E0EA55FD4F958F8093BF02DF
:100C9000FF91EF919F918F912F910F900FBE0F9029
:100CA0001F9018958081F4CFE6EAF2E01382128259
:100CB00088EE93E0A0E0B0E084839583A683B783B9
:100CC00084E091E09183808385EC90E09587848730
:100CD00084EC90E09787868780EC90E0918B808B06
:100CE00081EC90E0938B828B82EC90E0958B848BEF
:100CF00086EC90E0978B868B118E128E138E148E5D
:100D0000A3E4B3E082E015968C9315978BE01696DA
:100D10008C931697EAEAF1E0E4911796EC93179713
:100D2000E6E9F1E0E4911896EC93189740E85EE369
:100D300060E070E01D964D935D936D937C935097AA
:100D40000895CF93DF93CDB7DEB7CC55D1090FB659
:100D5000F894DEBF0FBECDBF789484B5826084BDA9
:100D600084B5816084BD85B5826085BD85B58160AF
:100D700085BD80916E00816080936E00109281002D
:100D800080918100826080938100809181008160E8
:100D900080938100809180008160809380008091A9
:100DA000B10084608093B1008091B0008160809335
:100DB000B00080917A00846080937A0080917A00FC
:100DC000826080937A0080917A00816080937A00BB
:100DD00080917A00806880937A001092C100E0913F
:100DE000B602F091B70282E08083E091B202F09106
:100DF000B3021082E091B402F091B5028FEC8083CF
:100E00001092BE02E091BA02F091BB0286E08083AC
:100E1000E091B802F091B902808180618083E09115
:100E2000B802F091B902808188608083E091B802B5
:100E3000F091B902808180688083E091B802F091DE
:100E4000B90280818F7D808362E0809148030E9497
:100E500041012FB7F8948091A2029091A302A09132
:100E6000A402B091A5022FBF805D9740A109B109EE
:100E700080934C0390934D03A0934E03B0934F0384
:100E800087E38093550381E291E00E94960483E317
:100E900091E00E9496048FE391E00E949604CE01B7
:100EA000895B9F4F2F969FAF8EAF2F9706976196C6
:100EB0009FAF8EAF6197809763969FAF8EAF63971A
:100EC0000E94DB01882349F0809149038B3028F090
:100ED0008D3050F085518230C0F1412C512C50ECB6
:100EE000652E5FE7752E1EC06091440370E090E0B0
:100EF00080E00E94E20D2DEC3CEC4CEC5DE30E94A6
:100F0000970E6B017C016091430370E090E080E0FC
:100F10000E94E20D9B01AC01C701B6010E94C70C03
:100F20002B013C010E94DB01882341F080914903A1
:100F30008C3009F4BDC0D8F48B30B1F1C12CD12C68
:100F400030ECE32E3FE7F32E59C0609143037091DC
:100F5000440376276727762790E080E00E94E00D23
:100F60002DEC3CEC4CEC5DE30E94970ED9CF855103
:100F7000823020F7B09045036B2D70E0762F662706
:100F800066277F7780914603682B90E080E00E947F
:100F9000E00D2DEC3CEC4CEC5DE30E94970E6B01F8
:100FA0007C01B7FE2BC0A4C06091450370E090E0C7
:100FB00080E00E94E00D6B017C011091460317FF59
:100FC0000AC0AC019B0160E070E080E89FEB0E94EA
:100FD000C60C6B017C011F70612F70E090E080E017
:100FE0000E94E20D2DEC3CEC4CEC5DE30E94970E70
:100FF000A70196010E94C70C6B017C018EE00E9444
:101000007201BC01990F880B990B0E94E20D2AE036
:1010100038E240EA5BE30E94970E20E030E048ECC3
:1010200052E40E94970E69966CAF7DAF8EAF9FAF72
:1010300069978FE00E9472011C01220C331C80E131
:101040000E947201880F991F65969FAF8EAF6597BA
:10105000A3019201C301B2010E94040F811109C0D2
:10106000A7019601C701B6010E94040F882309F465
:1010700044C089E591E00E94960489E791E00E94CE
:10108000960485E891E00E94960460ED77E080E0A8
:1010900090E00E94A90180E090E0892B09F410CF34
:1010A0000E94A203882309F40BCF0E94000008CFFE
:1010B00010914503612F70E090E080E00E94E00D08
:1010C0006B017C01609146036F7070E090E080E0FE
:1010D0000E94E20D2DEC3CEC4CEC5DE30E94970E7F
:1010E000A70196010E94C70C6B017C0117FF86CFF8
:1010F000F7FAF094F7F8F09481CF82E991E00E943A
:10110000A40441E069966CAD7DAD8EAD9FAD69974D
:101110000E94A60486E991E00E94A40441E0C70170
:10112000B6010E94A6048DE991E00E94A40440E06B
:10113000C301B2010E94A60483EA91E00E94A404C4
:10114000C1010E9482058BEA91E00E94A404659689
:101150008EAD9FAD65970E94820583EB91E00E9462
:10116000960426E636E646EE5FE3C701B6010E9426
:10117000970E20E030E040E052E40E94C70C4B01A3
:101180005C0128E539E344EB5BE3C301B2010E9453
:10119000970E9B01AC016DEC7CEC8CE09FE30E9410
:1011A000C60C6D966CAF7DAF8EAF9FAF6D9720E094
:1011B00030E048E652E4C501B4010E94C60C9B0130
:1011C000AC016D966CAD7DAD8EAD9FAD6D970E94FF
:1011D000970E9B01AC01C501B4010E94C60C4B01E6
:1011E0005C0165968EAD9FAD65970F976B969FAF2F
:1011F0008EAF6B978E01095B1F4F21E044E069962B
:101200006CAD7DAD8EAD9FAD69970E943A0A0650D8
:10121000110921E044E0C701B6010E943A0A809119
:101220009C028111F1C061969FAD61979F9360967A
:101230002FAD60972F932F968FAD2F978F932E966C
:101240009FAD2E979F9387EB91E09F938F931F9273
:1012500080E28F9363969FAD63979F9362962FADC5
:1012600062972F930E94380F20E030E040E05FE368
:10127000C501B4010E94C70C0E94AA0D7F936F9311
:1012800020E030E040E05FE3C301B2010E94C70C00
:101290000E94AA0D7F936F9384EC91E09F938F93AC
:1012A0001F9280E28F9381E090E08C0F9D1F9F93AF
:1012B0008F930E94380F0FB6F894DEBF0FBECDBFDC
:1012C000CE0181960E949604CE0101960E9496045A
:1012D0008CEF91E00E94960480919C0291E0892716
:1012E00080939C0220E030E04EE152E469966CADC0
:1012F0007DAD8EAD9FAD69970E94920E1816ACF031
:1013000094E1291631048CF06B968EAD9FAD6B97EE
:101310008734910550F420E030E040E952E4C50103
:10132000B4010E94920E87FD62C08FEF91E00E948F
:10133000A40420E030E04EE152E469966CAD7DAD4E
:101340008EAD9FAD69970E94920E18168CF487E0BF
:1013500092E00E94A40441E069966CAD7DAD8EAD33
:101360009FAD69970E94A60487E192E00E94A404C1
:1013700094E1291631045CF48AE192E00E94A4040D
:10138000C1010E94820588E292E00E94A4046B964B
:101390008EAD9FAD6B978734910570F08BE292E034
:1013A0000E94A40465968EAD9FAD65970E9482054C
:1013B00087E392E00E94A40420E030E040E952E498
:1013C000C501B4010E94920E87FD0DC08CE392E02E
:1013D0000E94A40441E0C501B4010E94A60489E270
:1013E00092E00E94A40482E191E00E94450420E082
:1013F00030E040E952E4C501B4010E94920E87FD3D
:1014000036C081E492E03FCE3F922F9265969FAD29
:1014100065979F9364962FAD64972F9382ED91E02B
:101420009F938F931F9280E28F9363969FAD6397F4
:101430009F9362962FAD62972F930E94380F0FB63D
:10144000F894DEBF0FBECDBF20E030E040E952E4AB
:10145000C501B4010E94920E62EE71E087FF02C0E6
:101460006EEE71E0CE0101960E94310F29CF86E722
:1014700092E009CEEF920F931F93CF93DF93E80191
:1014800034E047FD34E1042E000C550B57FF03C038
:10149000519541955109E32E022F242FAE010E9450
:1014A000580ACE01DF91CF911F910F91EF900895CF
:1014B000A9E0B0E0EEE5FAE00C94950C6A01F22E9A
:1014C000B02E102FFBE3AF2EA01608F41BE31F5F16
:1014D000012F27E0AE014F5F5F4F0E94B70BBC01A9
:1014E0008981982F9970913009F43FC09BE2E1FC0B
:1014F00004C09E2D9170E0FC3AC05E2D5071E82F23
:10150000E87083FF46C084E0911101C083E0EF2DB5
:10151000E81B8F1508F0E0E0D6018E2F20E255235E
:1015200051F1992329F0D6019C93C60101966C01D3
:1015300096012D5F3F4FE2FE24C08EE4D6018C93CE
:1015400091E411969C93119712968C93D9018E2F4A
:1015500090E281111BC0E20FF32FF11D10828EEF7C
:101560009FEF2996ECE00C94B10C9DE2C6CF90E27F
:10157000C4CF2D9381508111FCCFCE0ED11CE0E061
:10158000D0CF8EE6D6018C9391E6DBCF9D93815030
:10159000E0CF482F447082FF3DC084E0911101C02C
:1015A00083E08F1510F4EF2DE81BD6018E2F20E27B
:1015B000552309F1992329F0D6019C93C601019680
:1015C0006C0196012D5F3F4FE2FE1BC089E4D601FE
:1015D0008C938EE411968C93119786E412968C93DB
:1015E000D9018E2F90E2882309F4B5CF9D938150C5
:1015F000FACF2D9381508111FCCFCE0ED11CE0E0AB
:10160000D9CF89E6D6018C938EE611968C931197EB
:1016100086E6E4CF9B0177FF02C030E020E0A1E046
:10162000B0E0911102C0B0E0A0E0F9013196AE0F38
:10163000BF1F8B2C912CBB2009F461C05401EFEF2C
:10164000AE1ABE0AAA0DBB1DFA161B0619F014F03D
:101650004F2D4A1B511188C0E3FC59C07601A42FBD
:10166000B0E2A1114FC0C40ED11C992309F45BC094
:1016700040E0D6011196F60190836D01552309F4DF
:1016800048C0012F060F9A81582F507184FF03C064
:10169000913309F4015010160CF047C0093008F0DE
:1016A00008E0EEE2FE2E5B01A01AB10885019194DC
:1016B000819491082F3F320729F4D601FC92F6015C
:1016C00031966F016217730794F1021713077CF5C7
:1016D000DB01A21BB30BAA24A394B12CAC0EBD1E3C
:1016E000AA0DBB1D11968C9121503109D60111967E
:1016F00028153905F4F0F60180836D01DBCFB12C9C
:10170000A12CA0CFF701B1937F01A150AACF9111D5
:10171000B0CFD601942F50E302C05D939150911148
:10172000FCCFC40ED11C40E0ACCF01E0BACF80E3C7
:10173000DBCF6217730731F4963388F4953311F4D5
:10174000552369F0F6018083FD01842F90E2811119
:1017500008C0A40FB11D1C9290E080E002CF81E38D
:10176000F1CF91938150F3CF911183CF8ACF28305D
:1017700008F027E03327DA01990F311D87FD9160CA
:1017800000966105710539F432602E5F3D9330E3B8
:101790002A95E1F708959F3F30F080387105610583
:1017A00009F03C5F3C5F3D93913008F08068911DEB
:1017B000DF93CF931F930F93FF92EF92192F987F90
:1017C0009695E92F96959695E90FFF27EE53FF4FD3
:1017D00099273327EE24FF24A701E70105900894F9
:1017E000079428F4360FE71EF81E491F511D660F97
:1017F000771F881F991F0694A1F70590079428F476
:10180000E70EF81E491F561FC11D770F881F991F2D
:10181000661F0694A1F70590079428F4F80E491F57
:10182000561FC71FD11D880F991F661F771F06946B
:10183000A1F70590079420F4490F561FC71FD81F22
:10184000990F661F771F881F0694A9F7849110953A
:10185000177041F0D695C79557954795F794E7943B
:101860001A95C1F7E8E6F0E0689415901591359166
:101870006591959105907FE27395E118F10A430B0C
:10188000560BC90BD009C0F7E10CF11E431F561FC0
:10189000C91FD01D7EF4703311F48A95E6CFE89409
:1018A000015030F0080F0AF40027021708F4202F27
:1018B0002395022F7A3328F079E37D932A95E9F76F
:1018C00010C07D932A9589F606949795679537956C
:1018D00017951794E118F10A430B560BC90BD00961
:1018E00098F023957E9173957A3308F070E37C939A
:1018F0002013B8F77E9170617D9330F0839571E38A
:101900007D9370E32A95E1F71124EF90FF900F91FA
:101910001F91CF91DF91992787FD909508952F9280
:101920003F924F925F926F927F928F929F92AF926F
:10193000BF92CF92DF92EF92FF920F931F93CF93BC
:10194000DF93CDB7DEB7CA1BDB0B0FB6F894DEBF53
:101950000FBECDBF09942A88398848885F846E8479
:101960007D848C849B84AA84B984C884DF80EE80C3
:10197000FD800C811B81AA81B981CE0FD11D0FB6CC
:10198000F894DEBF0FBECDBFED0108955058BB27C0
:10199000AA270E94DE0C0C94580E0E944A0E38F0C2
:1019A0000E94510E20F039F49F3F19F426F40C9454
:1019B000470E0EF4E095E7FB0C94410EE92F0E94D0
:1019C000690E58F3BA17620773078407950720F06A
:1019D00079F4A6F50C948B0E0EF4E0950B2EBA2F2D
:1019E000A02D0B01B90190010C01CA01A001112425
:1019F000FF27591B99F0593F50F4503E68F11A16D1
:101A0000F040A22F232F342F4427585FF3CF469561
:101A100037952795A795F0405395C9F77EF41F1683
:101A2000BA0B620B730B840BBAF09150A1F0FF0F4D
:101A3000BB1F661F771F881FC2F70EC0BA0F621F39
:101A4000731F841F48F4879577956795B795F79529
:101A50009E3F08F0B0CF9395880F08F09927EE0FBE
:101A60009795879508950E941D0E08F481E00895CA
:101A70000E944C0D0C94580E0E94510E58F00E947A
:101A80004A0E40F029F45F3F29F00C94410E5111A9
:101A90000C948C0E0C94470E0E94690E68F39923E7
:101AA000B1F3552391F3951B550BBB27AA2762175A
:101AB0007307840738F09F5F5F4F220F331F441F67
:101AC000AA1FA9F335D00E2E3AF0E0E832D091509B
:101AD0005040E695001CCAF72BD0FE2F29D0660F88
:101AE000771F881FBB1F261737074807AB07B0E8CB
:101AF00009F0BB0B802DBF01FF2793585F4F3AF0D1
:101B00009E3F510578F00C94410E0C948C0E5F3F73
:101B1000E4F3983ED4F3869577956795B795F79556
:101B20009F5FC9F7880F911D9695879597F908953E
:101B3000E1E0660F771F881FBB1F621773078407DA
:101B4000BA0720F0621B730B840BBA0BEE1F88F7E9
:101B5000E09508950E94B10D6894B1110C948C0E1B
:101B600008950E94710E88F09F5798F0B92F992719
:101B7000B751B0F0E1F0660F771F881F991F1AF078
:101B8000BA95C9F714C0B13091F00E948B0EB1E044
:101B900008950C948B0E672F782F8827B85F39F043
:101BA000B93FCCF3869577956795B395D9F73EF411
:101BB00090958095709561957F4F8F4F9F4F0895B9
:101BC000E89409C097FB3EF49095809570956195D7
:101BD0007F4F8F4F9F4F9923A9F0F92F96E9BB278D
:101BE0009395F695879577956795B795F111F8CF09
:101BF000FAF4BB0F11F460FF1BC06F5F7F4F8F4F74
:101C00009F4F16C0882311F096E911C0772321F069
:101C10009EE8872F762F05C0662371F096E8862F01
:101C200070E060E02AF09A95660F771F881FDAF758
:101C3000880F9695879597F90895990F0008550F85
:101C4000AA0BE0E8FEEF16161706E807F907C0F042
:101C500012161306E407F50798F0621B730B840B4A
:101C6000950B39F40A2661F0232B242B252B21F424
:101C700008950A2609F4A140A6958FEF811D811DC4
:101C8000089597F99F6780E870E060E008959FEFFE
:101C900080EC089500240A94161617061806090603
:101CA000089500240A9412161306140605060895D2
:101CB000092E0394000C11F4882352F0BB0F40F45A
:101CC000BF2B11F460FF04C06F5F7F4F8F4F9F4F9A
:101CD000089557FD9058440F551F59F05F3F71F01C
:101CE0004795880F97FB991F61F09F3F79F0879583
:101CF0000895121613061406551FF2CF4695F1DF0C
:101D000008C0161617061806991FF1CF869571059B
:101D1000610508940895E894BB2766277727CB01CF
:101D200097F908950E941D0E08F48FEF08950E9400
:101D3000AA0E0C94580E0E944A0E38F00E94510EC2
:101D400020F0952311F00C94410E0C94470E1124B1
:101D50000C948C0E0E94690E70F3959FC1F3950F41
:101D600050E0551F629FF001729FBB27F00DB11D1F
:101D7000639FAA27F00DB11DAA1F649F6627B00DAF
:101D8000A11D661F829F2227B00DA11D621F739F98
:101D9000B00DA11D621F839FA00D611D221F749FA6
:101DA0003327A00D611D231F849F600D211D822FED
:101DB000762F6A2F11249F5750409AF0F1F0882314
:101DC0004AF0EE0FFF1FBB1F661F771F881F915041
:101DD0005040A9F79E3F510580F00C94410E0C94A1
:101DE0008C0E5F3FE4F3983ED4F386957795679524
:101DF000B795F795E7959F5FC1F7FE2B880F911D6B
:101E00009695879597F908950E941D0E880B990B5A
:101E10000895A1E21A2EAA1BBB1BFD010DC0AA1F2B
:101E2000BB1FEE1FFF1FA217B307E407F50720F043
:101E3000A21BB30BE40BF50B661F771F881F991FBE
:101E40001A9469F760957095809590959B01AC0107
:101E5000BD01CF010895EE0FFF1F0590F491E02D15
:101E60000994FB01DC0101900D920020E1F7089537
:101E7000AEE0B0E0EEE3FFE00C949D0C0D891E890E
:101E80008F89988D26E02C831A83098397FF02C0DF
:101E900080E090E801979E838D83AE01455E5F4FA1
:101EA000698D7A8DCE0101960E94680F4D815E8109
:101EB00057FD0AC02F813885421753070CF49A0149
:101EC000020F131FF80110822E96E4E00C94B90C57
:101ED000ABE0B0E0EEE6FFE00C948F0C7C013B0140
:101EE0008A01FC0117821682838181FFC8C1CE015D
:101EF00001965C01F7019381F30193FD859193FFB6
:101F000081913F01882309F453C1853239F493FD4F
:101F1000859193FF81913F01853229F4B70190E0CB
:101F20000E945811E7CF912C212C312CFFE1F315A1
:101F300038F08B3211F190F4803209F1833229F1BB
:101F400037FC3CC020ED280F2A3050F536FE20C06B
:101F50008AE0989E200D1124922E06C08D3291F0B9
:101F6000803371F7689430F8F30193FD859193FF06
:101F700081913F018111DACF21C0689431F86894D2
:101F800032F8F2CF689433F8EFCF689434F8ECCF9E
:101F9000EAE02E9E200D1124222E689435F8E4CF1D
:101FA0008E3229F436FC04C1689436F8DDCF8C36C5
:101FB00019F4689437F8D8CF8836B1F2982F9F7DFE
:101FC00095549330E0F08336A1F18337C1F1833526
:101FD00009F063C02801F2E04F0E511CF801C080E7
:101FE000D180692D70E036FC02C06FEF7FEFC60133
:101FF0000E9442114C01689437F882010AC00C5FBC
:102000001F4FFFE3F98388248394912C6501E894A2
:1020100037F833FE2DC0522C8114910471F55520F0
:1020200009F468CFB70180E290E00E9458115A94F9
:10203000F6CFF801808189830E5F1F4FE4CF28011E
:10204000F2E04F0E511CF801C080D180692D70E084
:1020500036FC02C06FEF7FEFC6010E944D114C01AC
:102060008201D5CFB70180E290E00E9458112A94F6
:102070002814190409F0B0F7CECFF60137FC85918A
:1020800037FE81916F01B70190E00E945811511005
:102090005A94F1E08F1A9108BFCF843619F089362F
:1020A00009F077C0F80137FE6BC0608171818281D1
:1020B00093810C5F1F4FF32DFF763F2E97FF09C0D2
:1020C00090958095709561957F4F8F4F9F4F689445
:1020D00037F82AE030E0A5010E948811C82ECA18FE
:1020E0008C2C432C36FE0CC0E89440F8C91440F404
:1020F00034FE05C032FC03C0F32DFE7E4F2E892C2A
:1021000044FE95C0FE01EC0DF11D8081803309F085
:1021100087C0242D297E422E842D8870582E43FCA2
:1021200095C040FE8FC09C2C821418F42C0C922C6D
:10213000981844FE91C0B70180E390E00E945811C6
:1021400042FE09C088E790E041FE02C088E590E0C9
:10215000B7010E945811C91408F48AC0CA94D12C3E
:102160009FEFC91AD90ACA0CDB1CF60182916F01D4
:10217000B70190E00E945811AC14BD04B1F74FCFE5
:1021800060817181072E000C880B990B0E5F1F4F29
:1021900092CFD32CE894D4F82AE030E0853739F197
:1021A000232D297FD22E8F3601F148F48835A9F0EE
:1021B000F701868197812B96E2E10C94AB0C803776
:1021C00049F08837A9F7D4FE02C06894D2F820E11C
:1021D00030E00DC06894D4F8F6CF34FE03C0822FEF
:1021E0008660D82E20E132E002C028E030E0F8011D
:1021F000D7FE0FC060817181828193810C5F1F4F78
:10220000A5010E948811C82ECA183D2CE89437F801
:1022100067CF6081718190E080E00E5F1F4FF0CF4B
:1022200042FC02C0839478CF8394839475CF842D2D
:10223000867809F471CFF6CFB70180E290E00E9472
:10224000581183948214C0F3512C73CF522C581818
:10225000821408F46ECFF8CF842D867809F47BCFF2
:102260008BE241FE80E247FC8DE2B70190E071CF46
:10227000B70180E390E00E9458119A946CCF8FEFE1
:102280009FEF99CFFC010590615070400110D8F785
:10229000809590958E0F9F1F0895FC0161507040AE
:1022A00001900110D8F7809590958E0F9F1F08958B
:1022B0000F931F93CF93DF93182F092FEB018B817F
:1022C00081FD09C01FEF0FEF812F902FDF91CF917C
:1022D0001F910F91089582FF14C02E813F818C8140
:1022E0009D81281739073CF4E881F981CF010196D7
:1022F0009983888310838E819F8101969F838E832B
:10230000E3CFE885F985812F0995892BA1F3DACFF1
:10231000FA01AA27283051F1203181F1E8946F9316
:102320006E7F6E5F7F4F8F4F9F4FAF4FB1E03ED0BC
:10233000B4E03CD0670F781F891F9A1FA11D680F5A
:10234000791F8A1F911DA11D6A0F711D811D911D8D
:10235000A11D20D009F468943F912AE0269F112402
:102360003019305D3193DEF6CF010895462F477066
:10237000405D4193B3E00FD0C9F7F6CF462F4F70C1
:10238000405D4A3318F0495D31FD4052419302D01F
:10239000A9F7EACFB4E0A6959795879577956795C5
:1023A000BA95C9F700976105710508959B01AC01C5
:1023B0000A2E06945795479537952795BA95C9F7EC
:1023C000620F731F841F951FA01D0895F894FFCFFF
:1023D00000000000D8033803650325049603740346
:1023E00088030D0A006E616E00696E66006F766686
:1023F000004C69766573746F636B204D6F6E697402
:102400006F72005374617274696E672E2E2E004CC9
:1024100069766573746F636B206D6F6E69746F722C
:1024200020737461727465640053656E736F7220FB
:102430004572726F723A204448543131207265619E
:1024400064206661696C65640044485431312065DC
:1024500072726F7200436865636B2073656E736F91
:10246000720042543A00432C2041543A00432C203D
:10247000483A00252C204143543A00252C2048524C
:10248000503A0062706D0042543A25734320415423
:102490003A257300483A25642525205448493A25B1
:1024A000640048523A256462706D204143543A25D5
:1024B00064005354524553533A48454154005354D1
:1024C000524553533A4E4F524D414C002D2D004131
:1024D0004C4552543A20004869676820626F64791D
:1024E0002074656D7020004320004C6F772061637D
:1024F00074697669747920002520004865617274DA
:102500002072617465200062706D2000544849207B
:1025100000535452455353204D53473A2048656168
:102520007420737472657373206C696B656C792E9B
:102530002050726F766964652073686164652F77D7
:10254000617465722E00535452455353204D5347C6
:102550003A204E6F206865617420737472657373DE
:0C2560002064657465637465642E0000DF
:00000001FF
